{
  "contractName": "ContractSimple",
  "abi": [
    {
      "constant": true,
      "inputs": [],
      "name": "owner",
      "outputs": [
        {
          "name": "",
          "type": "address"
        }
      ],
      "payable": false,
      "stateMutability": "view",
      "type": "function"
    },
    {
      "inputs": [
        {
          "name": "_name",
          "type": "string"
        },
        {
          "name": "_uploadUrl",
          "type": "string"
        },
        {
          "name": "_metadata",
          "type": "string"
        },
        {
          "name": "_isPrivate",
          "type": "bool"
        }
      ],
      "payable": false,
      "stateMutability": "nonpayable",
      "type": "constructor"
    },
    {
      "anonymous": false,
      "inputs": [
        {
          "indexed": false,
          "name": "editor",
          "type": "string"
        },
        {
          "indexed": false,
          "name": "uploadUrl",
          "type": "string"
        },
        {
          "indexed": false,
          "name": "metadata",
          "type": "string"
        }
      ],
      "name": "ContractEdited",
      "type": "event"
    },
    {
      "anonymous": false,
      "inputs": [
        {
          "indexed": false,
          "name": "viewer",
          "type": "string"
        }
      ],
      "name": "ContractViewed",
      "type": "event"
    },
    {
      "anonymous": false,
      "inputs": [
        {
          "indexed": false,
          "name": "signer",
          "type": "string"
        }
      ],
      "name": "ContractSigned",
      "type": "event"
    },
    {
      "constant": false,
      "inputs": [
        {
          "name": "_username",
          "type": "string"
        },
        {
          "name": "_uploadUrl",
          "type": "string"
        },
        {
          "name": "_metadata",
          "type": "string"
        }
      ],
      "name": "edited",
      "outputs": [],
      "payable": false,
      "stateMutability": "nonpayable",
      "type": "function"
    },
    {
      "constant": false,
      "inputs": [
        {
          "name": "_username",
          "type": "string"
        }
      ],
      "name": "signed",
      "outputs": [],
      "payable": false,
      "stateMutability": "nonpayable",
      "type": "function"
    },
    {
      "constant": false,
      "inputs": [
        {
          "name": "_username",
          "type": "string"
        }
      ],
      "name": "viewed",
      "outputs": [],
      "payable": false,
      "stateMutability": "nonpayable",
      "type": "function"
    },
    {
      "constant": false,
      "inputs": [
        {
          "name": "_active",
          "type": "bool"
        }
      ],
      "name": "setActive",
      "outputs": [],
      "payable": false,
      "stateMutability": "nonpayable",
      "type": "function"
    }
  ],
  "bytecode": "0x608060405234801561001057600080fd5b50604051610a5a380380610a5a8339810180604052608081101561003357600080fd5b81019080805164010000000081111561004b57600080fd5b8281019050602081018481111561006157600080fd5b815185600182028301116401000000008211171561007e57600080fd5b5050929190602001805164010000000081111561009a57600080fd5b828101905060208101848111156100b057600080fd5b81518560018202830111640100000000821117156100cd57600080fd5b505092919060200180516401000000008111156100e957600080fd5b828101905060208101848111156100ff57600080fd5b815185600182028301116401000000008211171561011c57600080fd5b505092919060200180519060200190929190505050336000806101000a81548173ffffffffffffffffffffffffffffffffffffffff021916908373ffffffffffffffffffffffffffffffffffffffff16021790555083600190805190602001906101879291906101f4565b50816002908051906020019061019e9291906101f4565b5080600460016101000a81548160ff02191690831515021790555082600390805190602001906101cf9291906101f4565b506001600460006101000a81548160ff02191690831515021790555050505050610299565b828054600181600116156101000203166002900490600052602060002090601f016020900481019282601f1061023557805160ff1916838001178555610263565b82800160010185558215610263579182015b82811115610262578251825591602001919060010190610247565b5b5090506102709190610274565b5090565b61029691905b8082111561029257600081600090555060010161027a565b5090565b90565b6107b2806102a86000396000f3fe60806040526004361061006d576000357c0100000000000000000000000000000000000000000000000000000000900463ffffffff16806317e4feb014610072578063200cebed1461013a5780638da5cb5b14610202578063acec338a14610259578063cdf951dd14610296575b600080fd5b34801561007e57600080fd5b506101386004803603602081101561009557600080fd5b81019080803590602001906401000000008111156100b257600080fd5b8201836020820111156100c457600080fd5b803590602001918460018302840111640100000000831117156100e657600080fd5b91908080601f016020809104026020016040519081016040528093929190818152602001838380828437600081840152601f19601f82011690508083019250505050505050919291929050505061048c565b005b34801561014657600080fd5b506102006004803603602081101561015d57600080fd5b810190808035906020019064010000000081111561017a57600080fd5b82018360208201111561018c57600080fd5b803590602001918460018302840111640100000000831117156101ae57600080fd5b91908080601f016020809104026020016040519081016040528093929190818152602001838380828437600081840152601f19601f82011690508083019250505050505050919291929050505061052a565b005b34801561020e57600080fd5b506102176105c9565b604051808273ffffffffffffffffffffffffffffffffffffffff1673ffffffffffffffffffffffffffffffffffffffff16815260200191505060405180910390f35b34801561026557600080fd5b506102946004803603602081101561027c57600080fd5b810190808035151590602001909291905050506105ee565b005b3480156102a257600080fd5b5061048a600480360360608110156102b957600080fd5b81019080803590602001906401000000008111156102d657600080fd5b8201836020820111156102e857600080fd5b8035906020019184600183028401116401000000008311171561030a57600080fd5b91908080601f016020809104026020016040519081016040528093929190818152602001838380828437600081840152601f19601f8201169050808301925050505050505091929192908035906020019064010000000081111561036d57600080fd5b82018360208201111561037f57600080fd5b803590602001918460018302840111640100000000831117156103a157600080fd5b91908080601f016020809104026020016040519081016040528093929190818152602001838380828437600081840152601f19601f8201169050808301925050505050505091929192908035906020019064010000000081111561040457600080fd5b82018360208201111561041657600080fd5b8035906020019184600183028401116401000000008311171561043857600080fd5b91908080601f016020809104026020016040519081016040528093929190818152602001838380828437600081840152601f19601f82011690508083019250505050505050919291929050505061060b565b005b7e0657b7d1f909d439de077ab59ea5f4b453def9912024e38dfdccce390d8171816040518080602001828103825283818151815260200191508051906020019080838360005b838110156104ed5780820151818401526020810190506104d2565b50505050905090810190601f16801561051a5780820380516001836020036101000a031916815260200191505b509250505060405180910390a150565b7fb7d22cc7de8b9e30a802b918c96be14e80ed39adf69e5090b3dd3a3cb93dd888816040518080602001828103825283818151815260200191508051906020019080838360005b8381101561058c578082015181840152602081019050610571565b50505050905090810190601f1680156105b95780820380516001836020036101000a031916815260200191505b509250505060405180910390a150565b6000809054906101000a900473ffffffffffffffffffffffffffffffffffffffff1681565b80600460006101000a81548160ff02191690831515021790555050565b7f9d1c34e0e1f1a277e7bc37bcaa8b997f40ef9729f257c9fb28b0cf77e2cb0a0683838360405180806020018060200180602001848103845287818151815260200191508051906020019080838360005b8381101561067757808201518184015260208101905061065c565b50505050905090810190601f1680156106a45780820380516001836020036101000a031916815260200191505b50848103835286818151815260200191508051906020019080838360005b838110156106dd5780820151818401526020810190506106c2565b50505050905090810190601f16801561070a5780820380516001836020036101000a031916815260200191505b50848103825285818151815260200191508051906020019080838360005b83811015610743578082015181840152602081019050610728565b50505050905090810190601f1680156107705780820380516001836020036101000a031916815260200191505b50965050505050505060405180910390a150505056fea165627a7a723058206875ba7e9949ef91ac076c49ff9ac4b9ba1c6988cbfdf5ef173a3100b5f1fdd20029",
  "source": "// ContractSimple: Contract solidity file for an uploaded real estate contract.\n// File: `./contracts/ContractSimple.sol`\n// recommend: https://remix.ethereum.org/#optimize=false&version=soljson-v0.5.0+commit.1d4f565a.js\npragma solidity ^0.5.0;\n\ncontract ContractSimple {\n \n  address public owner;\n\n  string name;\n  string metadata;\n  string uploadUrl;\n  bool active;\n  bool isPrivate;\n \n  constructor(string memory _name, string memory _uploadUrl, string memory _metadata, bool _isPrivate) public {\n    owner = msg.sender;\n    name = _name;\n    metadata = _metadata;\n    isPrivate = _isPrivate;\n    uploadUrl = _uploadUrl;\n    active = true;\n  }\n \n  event ContractEdited(string editor, string uploadUrl, string metadata);\n  event ContractViewed(string viewer);\n  event ContractSigned(string signer);\n\n  /// Modifiers are a convenient way to validate inputs to\n  /// functions. `onlyBefore` is applied to `bid` below:\n  /// The new function body is the modifier's body where\n  /// `_` is replaced by the old function body.\n  modifier onlyBefore(uint _time) {require(now < _time); _;}\n  modifier onlyAfter(uint _time) {require(now > _time); _;}\n\n  function edited(string memory _username, string memory _uploadUrl, string memory _metadata) public {\n    emit ContractEdited(_username, _uploadUrl, _metadata);\n  }\n\n  function signed(string memory _username) public {\n    emit ContractSigned(_username);\n  }\n\n  function viewed(string memory _username) public {\n    emit ContractViewed(_username);\n  }\n\n  function setActive(bool _active) public {\n    active = _active;\n  }\n}\n",
  "sourcePath": "/Users/cbuonocore/personal/hackathon/consensus19/server/truffle/contracts/ContractSimple.sol",
  "compiler": {
    "name": "solc",
    "version": "0.5.0+commit.1d4f565a.Emscripten.clang"
  },
  "schemaVersion": "3.0.9",
  "updatedAt": "2019-05-12T14:28:32.147Z",
  "devdoc": {
    "methods": {}
  },
  "userdoc": {
    "methods": {}
  }
}