{
  "contractName": "ContractSimple",
  "abi": [
    {
      "constant": true,
      "inputs": [],
      "name": "owner",
      "outputs": [
        {
          "name": "",
          "type": "address"
        }
      ],
      "payable": false,
      "stateMutability": "view",
      "type": "function"
    },
    {
      "inputs": [
        {
          "name": "_name",
          "type": "string"
        },
        {
          "name": "_metadata",
          "type": "string"
        }
      ],
      "payable": false,
      "stateMutability": "nonpayable",
      "type": "constructor"
    },
    {
      "anonymous": false,
      "inputs": [
        {
          "indexed": false,
          "name": "editor",
          "type": "string"
        },
        {
          "indexed": false,
          "name": "metadata",
          "type": "string"
        }
      ],
      "name": "ContractEdited",
      "type": "event"
    },
    {
      "anonymous": false,
      "inputs": [
        {
          "indexed": false,
          "name": "viewer",
          "type": "string"
        }
      ],
      "name": "ContractViewed",
      "type": "event"
    },
    {
      "anonymous": false,
      "inputs": [
        {
          "indexed": false,
          "name": "signer",
          "type": "string"
        }
      ],
      "name": "ContractSigned",
      "type": "event"
    },
    {
      "constant": false,
      "inputs": [
        {
          "name": "_username",
          "type": "string"
        },
        {
          "name": "_metadata",
          "type": "string"
        }
      ],
      "name": "edited",
      "outputs": [],
      "payable": false,
      "stateMutability": "nonpayable",
      "type": "function"
    },
    {
      "constant": false,
      "inputs": [
        {
          "name": "_username",
          "type": "string"
        }
      ],
      "name": "signed",
      "outputs": [],
      "payable": false,
      "stateMutability": "nonpayable",
      "type": "function"
    },
    {
      "constant": false,
      "inputs": [
        {
          "name": "_username",
          "type": "string"
        }
      ],
      "name": "viewed",
      "outputs": [],
      "payable": false,
      "stateMutability": "nonpayable",
      "type": "function"
    },
    {
      "constant": false,
      "inputs": [
        {
          "name": "_active",
          "type": "bool"
        }
      ],
      "name": "setActive",
      "outputs": [],
      "payable": false,
      "stateMutability": "nonpayable",
      "type": "function"
    }
  ],
  "bytecode": "0x608060405234801561001057600080fd5b506040516108c63803806108c68339810180604052604081101561003357600080fd5b81019080805164010000000081111561004b57600080fd5b8281019050602081018481111561006157600080fd5b815185600182028301116401000000008211171561007e57600080fd5b5050929190602001805164010000000081111561009a57600080fd5b828101905060208101848111156100b057600080fd5b81518560018202830111640100000000821117156100cd57600080fd5b5050929190505050336000806101000a81548173ffffffffffffffffffffffffffffffffffffffff021916908373ffffffffffffffffffffffffffffffffffffffff160217905550816001908051906020019061012b929190610165565b508060029080519060200190610142929190610165565b506001600360006101000a81548160ff021916908315150217905550505061020a565b828054600181600116156101000203166002900490600052602060002090601f016020900481019282601f106101a657805160ff19168380011785556101d4565b828001600101855582156101d4579182015b828111156101d35782518255916020019190600101906101b8565b5b5090506101e191906101e5565b5090565b61020791905b808211156102035760008160009055506001016101eb565b5090565b90565b6106ad806102196000396000f3fe60806040526004361061006d576000357c0100000000000000000000000000000000000000000000000000000000900463ffffffff168063020f46321461007257806317e4feb0146101d1578063200cebed146102995780638da5cb5b14610361578063acec338a146103b8575b600080fd5b34801561007e57600080fd5b506101cf6004803603604081101561009557600080fd5b81019080803590602001906401000000008111156100b257600080fd5b8201836020820111156100c457600080fd5b803590602001918460018302840111640100000000831117156100e657600080fd5b91908080601f016020809104026020016040519081016040528093929190818152602001838380828437600081840152601f19601f8201169050808301925050505050505091929192908035906020019064010000000081111561014957600080fd5b82018360208201111561015b57600080fd5b8035906020019184600183028401116401000000008311171561017d57600080fd5b91908080601f016020809104026020016040519081016040528093929190818152602001838380828437600081840152601f19601f8201169050808301925050505050505091929192905050506103f5565b005b3480156101dd57600080fd5b50610297600480360360208110156101f457600080fd5b810190808035906020019064010000000081111561021157600080fd5b82018360208201111561022357600080fd5b8035906020019184600183028401116401000000008311171561024557600080fd5b91908080601f016020809104026020016040519081016040528093929190818152602001838380828437600081840152601f19601f820116905080830192505050505050509192919290505050610502565b005b3480156102a557600080fd5b5061035f600480360360208110156102bc57600080fd5b81019080803590602001906401000000008111156102d957600080fd5b8201836020820111156102eb57600080fd5b8035906020019184600183028401116401000000008311171561030d57600080fd5b91908080601f016020809104026020016040519081016040528093929190818152602001838380828437600081840152601f19601f8201169050808301925050505050505091929192905050506105a0565b005b34801561036d57600080fd5b5061037661063f565b604051808273ffffffffffffffffffffffffffffffffffffffff1673ffffffffffffffffffffffffffffffffffffffff16815260200191505060405180910390f35b3480156103c457600080fd5b506103f3600480360360208110156103db57600080fd5b81019080803515159060200190929190505050610664565b005b7fb519c15e5ebca681635b8215628d90bd8e4dee9b7b8e6ce00da50a3760a811008282604051808060200180602001838103835285818151815260200191508051906020019080838360005b8381101561045c578082015181840152602081019050610441565b50505050905090810190601f1680156104895780820380516001836020036101000a031916815260200191505b50838103825284818151815260200191508051906020019080838360005b838110156104c25780820151818401526020810190506104a7565b50505050905090810190601f1680156104ef5780820380516001836020036101000a031916815260200191505b5094505050505060405180910390a15050565b7e0657b7d1f909d439de077ab59ea5f4b453def9912024e38dfdccce390d8171816040518080602001828103825283818151815260200191508051906020019080838360005b83811015610563578082015181840152602081019050610548565b50505050905090810190601f1680156105905780820380516001836020036101000a031916815260200191505b509250505060405180910390a150565b7fb7d22cc7de8b9e30a802b918c96be14e80ed39adf69e5090b3dd3a3cb93dd888816040518080602001828103825283818151815260200191508051906020019080838360005b838110156106025780820151818401526020810190506105e7565b50505050905090810190601f16801561062f5780820380516001836020036101000a031916815260200191505b509250505060405180910390a150565b6000809054906101000a900473ffffffffffffffffffffffffffffffffffffffff1681565b80600360006101000a81548160ff0219169083151502179055505056fea165627a7a7230582011144286489f45f39ceb2a713378f4b19a7a89f66a8e7659ceba232618a1f0c90029",
  "source": "// ContractSimple: Contract solidity file for an uploaded real estate contract.\n// File: `./contracts/ContractSimple.sol`\n\npragma solidity ^0.5.0;\n\ncontract ContractSimple {\n \n  address public owner;\n  string name;\n  string metadata;\n  bool active;\n \n  constructor(string memory _name, string memory _metadata) public {\n    owner = msg.sender;\n    name = _name;\n    metadata = _metadata;\n    active = true;\n  }\n \n  event ContractEdited(string editor, string metadata);\n  event ContractViewed(string viewer);\n  event ContractSigned(string signer);\n\n  /// Modifiers are a convenient way to validate inputs to\n  /// functions. `onlyBefore` is applied to `bid` below:\n  /// The new function body is the modifier's body where\n  /// `_` is replaced by the old function body.\n  modifier onlyBefore(uint _time) {require(now < _time); _;}\n  modifier onlyAfter(uint _time) {require(now > _time); _;}\n\n  function edited(string memory _username, string memory _metadata) public {\n    emit ContractEdited(_username, _metadata);\n  }\n\n  function signed(string memory _username) public {\n    emit ContractSigned(_username);\n  }\n\n  function viewed(string memory _username) public {\n    emit ContractViewed(_username);\n  }\n\n  function setActive(bool _active) public {\n    active = _active;\n  }\n}\n",
  "sourcePath": "/Users/cbuonocore/personal/hackathon/consensus19/server/truffle/contracts/ContractSimple.sol",
  "compiler": {
    "name": "solc",
    "version": "0.5.0+commit.1d4f565a.Emscripten.clang"
  },
  "schemaVersion": "3.0.9",
  "updatedAt": "2019-05-11T21:23:41.886Z",
  "devdoc": {
    "methods": {}
  },
  "userdoc": {
    "methods": {}
  }
}